:080000000C943F000C94000079
:100008000C9400000C9400000C9400000C94000068
:100018000C9400000C9400000C9400000C94000058
:100028000C9400000C9400000C9400000C94000048
:100038000C9400000C9400000C9400000C94000038
:100048000C9400000C9400000C94000052203D20F9
:10005800256600002D4E414E000080C001002D4E47
:10006800414E00494E460000020060026200010055
:10007800640264000000F894EE27ECBBF1E0FBBFDB
:10008800EBBFE5BF8DE0A2E0BB27ED938A95E9F7CA
:1000980080E098E0A0E6ED930197E9F7E0E7F0E06B
:1000A80085919591009761F0A591B591059015906E
:1000B800BF01F00105900D920197E1F7FB01F0CF28
:1000C800EFE5EDBFE8E0EEBFC0E6D2E00C947C00BF
:1000D8001A931A2FE12FE064E7B98BE18A95F1F7BB
:1000E800369A349BFECF349AE4B1F5B10C9450049F
:1000F800A497D0D4E0E0EA83EB83E4B7E0FD04C042
:10010800E4B7E1FD01C0E4B7E0E0E4BFEABBEBBB64
:10011800E7BBE8BBE4BBE5BBE1BBE2BBE3BFE2BFD7
:10012800ECBFEFBDEEBDEDBDECBDE7BDE6BDEBBD83
:10013800EABDE9BDE8BDE2BDE5BDE4BDE3BDE9BF9B
:10014800E5BFE4BFEAB9E0E8E8B9E0E4E7B9E3E825
:10015800E6B9E0E0E0BFEDB9E6BFA0E174D3A0E006
:10016800B7DFA5E0B0E0B7D566277727A4D6DF01CB
:10017800CB01E0E0F0EC6FE774E474D78FD437D3A9
:10018800E0E0EA93A0E021D3FE013496FA93EA93E3
:10019800E4E5F0E0FA93EA93AC81BD818E819F811A
:1001A800EFE1F5E86BE87FE35DD702D684E0B4D2EF
:1001B8002896DE01149638D3A4EFB1E0B7D7CFCF95
:1001C800FFCF6DD59D015E811296ED91FC9111973F
:1001D8003097E9F0D90167D48F01309759F0023090
:1001E800E0E01E0760F0F80131978F01D9011496FD
:1001F800ED93FC93D90112965BD431975083D901C2
:10020800ED91FC911197FF230AF052D405C0D90152
:10021800EFEFFFEFED93FC9349D5279608952497C8
:1002280039D4E0E84BD4AD012A85EE85FF85EF3F50
:10023800AFEFFA0731F45A934A93ACE5B0E02ED306
:1002480088C0EF3FAFE7FA0731F45A934A93ADE518
:10025800B0E024D37EC0AB85A73010F0E6E0EB8792
:100268001B85E12F1150E03011F02DD4FACF39D48D
:1002780030976040704019F430E025D41BC03B85AE
:1002880035D409F008F407C01ED430D418F038D497
:100298003CD4FBCF08C02AD428F432D441D446D465
:1002A8003150F9CF10D41DD446D440D41FD410F007
:1002B80027D42BD410E0EB85E11728F142D446D49B
:1002C8003AD44AD41DD4CED6BDD50E2F5F934F93C2
:1002D8004F5F5F4FE05DAF91BF91EC93E02FFF2739
:1002E80066277727E8D52DD46FD60AD46BD516D6CE
:1002F8001DD4E12F1F5FE030F1F6DA014F5F5F4F49
:10030800EEE2EC93D8CF5F934F934F5F5F4FE22FAE
:10031800AF91BF91EC93303024F43195DA01EDE2DE
:1003280002C0DA01EBE2EC934F5F5F4F5F934F93AC
:100338001BD4E7D4E05DAF91BF91EC935F934F93EB
:1003480013D408D5E05DAF91BF91EC93DA01E0E0FA
:10035800EC93ACD460960895BA93AA93EF976197FB
:100368009ED410E0FE01E85AFF4F0E94D006E887AD
:10037800F987FE01EA5AFF4F0E94D006EE83FF83F9
:10038800AE81BF81E0E0F0E0ED93FC93DE01A45A7A
:10039800BF4F8ED33197E4912E2FE03009F4B4C1CA
:1003A800E12FE03031F4253211F411E001C0E1D33E
:1003B800AAC1E130B9F4253211F4DBD3A3C112E0AC
:1003C800E0E0ED8B00E02D3211F401E09CC12B320E
:1003D80019F4EBE2ED8B97C1203219F4E0E2ED8BD2
:1003E80092C102C0E23039F450E013E0203311F436
:1003F800006889C102C0E33091F4203310F02A3339
:1004080008F007C0AAE05A9F502DE22FE0535E0F74
:100418007AC140E02E3211F414E075C10FC0E43007
:1004280099F4203310F02A3308F008C00062AAE0DB
:100438004A9F402DE22FE0534E0F65C12C3619F428
:10044800026015E060C103C0E53009F05CC1E22F2D
:10045800E33639F495D39AD393D3A481AA939DD341
:1004680051C1E53411F0E53609F402C0E636D1F59C
:100478009AD39ED3ED91FD916D917D919FD380D3B9
:1004880085D3AD85AA2332F0AD89AB3241F0A032D5
:1004980061F013C098D3A3D491D3EDE2ED8B07FF9D
:1004A80004C0ED89EA9379D308C0EE85FF853196BB
:1004B800EE87FF873197AD89A08305FF46E0263692
:1004C80039F481D375D44A93AB89BC8950D207C01B
:1004D8007AD36ED44A932A93AC89BD89A0DE63D3BC
:1004E80077D318C0E33729F44BD350D376D370D3DE
:1004F8000AC0E037A1F444D349D36FD3AE85BF8592
:10050800E6D11E2F08600F77403011F0411708F030
:1005180001C0142F40E0E0E0EC8B30E066C0E43628
:1005280011F0E93611F4046002C0E53791F4EAE00D
:10053800EC8B01FF07C0E0E0FAEC6AE97BE354D3F7
:100548001AE01FC0E0E1F7E260E070E04DD315E08B
:1005580018C0E83511F4086003C0E83709F0D2C0C4
:10056800E0E1EC8B01FF07C0E0E0F0E060E070E163
:100578003BD318E006C0E0E0F0E160E070E034D37F
:1005880014E0403011F00F7701C041E001FF06C0D0
:10059800F7D2FCD20DD31496F9D311C002FF09C0CB
:1005A800EFD2F4D205D37FD26F2F660F660B762F6A
:1005B80006C0E6D2EBD2FCD276D266277727EA8746
:1005C800FB876C877D8702FF0FC0AD85AA232AF4BD
:1005D800FAD273D3F3D2EDE2ED8BED89E03019F066
:1005E8001F5F4F5F01C00B7F342F00FD13C015172D
:1005F80010F4351708F00EC007FF08C002FF04C04A
:100608000B7F2D89115001C020E301C020E2B1D237
:100618005150EDCF141780F4006102FF05C0E9D2F4
:1006280009F0515011504150E0E3EA93B6D25030EE
:1006380009F051504150EECF312FEC89E030B1F440
:10064800303099F003FF06C0EE85FF852591EE87CF
:10065800FF8705C0AE85BF852D91AE87BF8789D23C
:10066800503009F051503150EBCF43C0D2D24ED365
:100678002E2F2A3030F003FF02C0295C01C0295A0E
:1006880001C0205D04FD1DC0213348F4CBD2A13048
:10069800E0E0BE07E0E08E07E0E09E0709F40BC04B
:1006A800431740F4531710F000FF01C00EC020E2BA
:1006B80007FF07C020E3006102FF03C09AD209F0D8
:1006C800515057D2503009F051503150A2D24ED328
:1006D80075D2EC89A7D2FF276627772717D384D24C
:1006E800E889F9896A897B8930976040704009F008
:1006F800BDCF00FF07C0503029F05150E0E2EA9327
:100708004CD2F9CF10E042CEAE81BF81ED91FD9180
:10071800CDD2EF966F960895FF92F82E2697BFD206
:10072800FE010024EF0DF01D46855785042E052A8D
:1007380019F4EFEFFFEF23C0DE0118960024AF0D88
:10074800B01D8D0148875987E0E0EA87EB87DE0115
:100758001C960024AF0DB01DED91FD91FA93EA931C
:100768001A930A93E5EEF0E0FA93EA93DE011C96F9
:10077800F3DD9F01A885B985E0E0EC93F90196D2F5
:100788002C96FF9008951A931A2FE5B3EF70AE2FA9
:10079800E12FE07FEA2BE5BB8DE08A95F1F7AA9A75
:1007A8008DE08A95F1F7AA988DE08A95F1F774C0E3
:1007B800AA93A881E8DFE881E295E883A881E3DFCE
:1007C80085E88A95F1F7219608951A930A931A2FC6
:1007D8000A81E12FF0E0E05AFD4FE081E00FAE2FF3
:1007E800E7DF502E412E1981088123960895A2E053
:1007F8001ED2ACE0DDDFA1E01AD2E0E04E2E5E2E84
:1008080008951A931A2F1A3011F0571438F0E0E0AF
:10081800EA934394A42DD9DF1A30F1F15394A89A9E
:10082800A12FC6DFA89838C03CD29D01D9012F5FFF
:100838003F4FEC911E2FE03019F0A12FE2DFF6CFE9
:1008480037D20C94B9041A931A2FE4B3E06FE4BBBF
:10085800A29AA09AA19AAA98A898A998712EE12F6D
:10086800E058E0936202E12FE054E0936302A4E1D0
:10087800B0E05CD4E0D1DFD1DED1A0E284DF88EC47
:1008880090E00197F1F7A8E293DFA4E091DFA5E8F3
:100898008FDFA6E08DDFABDF19910895BA93AA9395
:1008A800E991F991A991B991CD0105900D92002096
:1008B800E1F7FC010895BA93AA93A991B991EE279B
:1008C800FF276D91662311F03196FBCF0895BA93F7
:1008D800AA93AA27BB27E991F9910590002011F066
:1008E8001196FBCFFD01089568D27B816A81F98159
:1008F800E88177FB770F67FD7160972F9E5781F02E
:1009080078F0983190F4AA27BB2788270894879510
:10091800B795A7959A95D1F7EA23FB23682305C0D5
:10092800E8947727EE27FF2766276F77769508F4F0
:10093800606877F9A991B99189919991EA17FB07AC
:100948006807790797FB089538D2A881B9818A8109
:100958009B81CADFA3D011F475D107C0EEF772D11D
:10096800A0E0B0E080E89FE3D9D2249608952497C8
:1009780091D0E0E0A3D09D015A85ED85FE85EF3F3B
:10098800AFEFFA0731F43A932A93A6E6B0E086DF90
:100998007EC0EF3FAFE7FA0731F43A932A93A7E610
:1009A800B0E07CDF74C0AE85AA2342F450D117D2E0
:1009B80053D1D9012F5F3F4FEDE2EC93573008F048
:1009C80056E0152FE12F1150E03021F0BAD0BED0FB
:1009D80048D1F8CF4BD1A9D23FD110E0E0E0F0E008
:1009E80060E87FE33ED142D181D358F06CD01F5FDD
:1009F800173230F03A932A93ABE6B0E04FDF47C0A6
:100A0800F2CF103031F4D9012F5F3F4FE0E3EC9380
:100A18001CC0E12F1150E030C1F093D097D08BD09B
:100A28009BD02DD11FD30ED20E2F3F932F932CD1B5
:100A3800AF91BF91EC93E02FF0E083D02AD1C4D2DC
:100A48001ED1C0D16BD208D1E4CF5030E9F0D90122
:100A58002F5F3F4FEEE2EC93E52F5150E030A1F0CD
:100A68000ED15ED0F9D0F3D0EDD10E2F3F932F9356
:100A78000BD1AF91BF91EC93E02FF0E000D109D1F9
:100A8800A1D14CD2E9D0E8CFD901E0E0EC930ED166
:100A98002F960895E0E0E883E9830895E883F983D1
:100AA8006A837B8308951496ED91FC9111970895BC
:100AB800ED91FD913196FE93EE930895EA83EFE36D
:100AC800EB83EDD00895AE81BF8188859985E0E0FC
:100AD800F0E060E271E478D2EE83FF83688779877B
:100AE8000895EC85FD856E857F850895EE81FF81EB
:100AF80068857985AC85BD858E859F85F7D20895F3
:100B0800AC85BD858E859F850895EDECFCEC6CEC7D
:100B18007DE35AD2EC87FD876E877F873F5F089514
:100B2800E0E0F0E060E271E44FD20895EC87FD87E1
:100B38006E877F870895A0E0B0E080E09FE3F5D15D
:100B48000895AE81BF81888599850895EDECFCEC08
:100B58006CEC7DE339D20895DF01CB01F5DEEE833D
:100B6800FF836887798708954F5F5F4FA32FEAE077
:100B780008952A93AF81B885E985FA85099508957E
:100B8800FE01E65AFF4F0E94D00608953497DE0111
:100B9800A65ABF4FED93FC930895AF81B885E985B8
:100BA800FA8509950895FE017696EE87FF870895E0
:100BB800DE01A65ABF4F0E94D6060895EA87FB8732
:100BC8006C877D870895EA85FB856C857D8508950A
:100BD800AE85BF8570DE1E2F0895EADF1496ED916D
:100BE800FD91EE87FF870895E88BF98B6A8B7B8BE5
:100BF80008950B7FED89EA93DE01A95ABF4F0E9441
:100C0800D606FE01E75AFF4F0E94D00609955030DC
:100C18000895E889F9896A897B89AA85BB858C85C5
:100C28009D850895A889B9898A899B890895C0DD19
:100C3800A3E0B0E07BC2A0E3A6DD88EC90E00197DA
:100C4800F1F70895E881F9816A817B810895EB8540
:100C5800FC856D857E850895EB87FC876D877E878B
:100C68000895EE83FF83688779870895EE81FF8171
:100C780068857985AB85BC858D859E850895AB850E
:100C8800BC858D859E8508952F5F3F4FE02FE05DE1
:100C980008956F2F660F660B762F0DD108955A931E
:100CA8004A933A932A931A930A9308955D814C8143
:100CB8003B812A81198108810895F0956095709586
:100CC800E195FF4F6F4F7F4F0895FE2FFF0FFF0BEA
:100CD8006F2F7F2F0895FA9FF02DEB9FF00DEA9F5D
:100CE800E02DF10D0895002498E0AA0F001C0E1ABB
:100CF80010F40E0E01C0A1609A95B9F7EA2FA02D45
:100D0800089538D0F0DF0EF4E19508953F934F939E
:100D18005F9300241124A00130E2AA0FBB1F881F93
:100D2800991F001C111C441F551F0E1A1F0A460B41
:100D3800570B28F40E0E1F1E461F571F01C0A16037
:100D48003A9559F7FD01BC01D001CA015F914F9155
:100D58003F910895E894A7FF02C0A1956894E7FD24
:100D6800E195C1DFEA2F0EF4E1950895CFDFFD018B
:100D7800BC010895E894E7FF02C0E1956894A7FFD5
:100D880004C0A19500F8039400FA0895ED91FD912F
:100D98006D917C91139708950F920190F081E02D49
:100DA8000F9008950F920D90BC91A02D0F9008956B
:100DB8007A936A93FA93EA9308959A938A93BA93E3
:100DC800AA930895182E862F612D192E972F712D0D
:100DD8001B2EBF2FF12D1A2EAE2FE12D089530971F
:100DE8006040704009F070580895552342F4503817
:100DF80011F4E0FF04C03196691F791F6BF050E8C9
:100E0800572711F45F93CFC05F3F31F0660F000C96
:100E180057956795752F08955F9300200AF0CEC007
:100E2800C7C050E8192E1522880F991F9527550F0E
:100E3800879550E8072E0522660F771F7527550FEF
:100E480067950895689401C0E8945F93F2DF70385D
:100E580018F07F3F08F4A7C056E1571BAAF4519534
:100E680058300EF4593030F0EFEFFFEF6FEF7FE7B7
:100E780077F91AC077275523B9F0EE0FFF1F661FC1
:100E8800771F5A95D1F710C07727583028F0EF2FE1
:100E9800F62F672F5850F9CF552331F0769567957F
:100EA800F795E7955A95D1F700200AF406DF5F9188
:100EB8000895689401C0E894309760407040B1F09C
:100EC800002426F0772312F40094F7DE172E7EE133
:100ED800112032F07A95EE0FFF1F661F111CF9CF13
:100EE800EF2FF62F612D5F938ADF5F9108954F935F
:100EF800AF01FD01DA01AB01BC01CA01402D012C93
:100F0800142E4F910895EA0FFB1F681F0895E0956E
:100F1800F0956095EF5FFF4F6F4F08955F9381DF06
:100F2800903871F150E8152604C05F937ADF903845
:100F380039F1703821F1572F591B2BF112F4D7DFF3
:100F4800FACF583118F0AA27BB278827583028F03D
:100F5800AB2FB82F88275850F9CF552329F08695FD
:100F6800B795A7955A95D9F7502D512572F0CBDF33
:100F780038F46795F795E795739513F41FC0B7DFB5
:100F88003EDF5F910895D8F7FBCFEA1BFB0B680B98
:100F980051F010F40094BBDF662392F3EE0FFF1FAD
:100FA800661F7A95CBF7EE27FF27BF015F9108955B
:100FB800EFEFFFEF6FE77FEF5F910895EFEFFFEF40
:100FC8006FE77FE75F9108955F932BDF703859F3E0
:100FD800903849F301240894791F23F424F300205E
:100FE8003AF3ECCF0F921F932F933F934F93112710
:100FF80022279927689FA0018F9F302D410D591FE7
:101008006B9F300D411D591F8E9F27D0BF9F25D044
:101018006A9F23D0BE9F1DD0AF9F1BD0AE9F110DDE
:10102800291F391F491F591FE32FF42F652F522FEE
:101038004F913F912F911F910F9066232AF0550FE2
:10104800EE1FFF1F661F02C073954BF2CEDE5F9145
:101058000895100D211D391F02C0200D311D491F93
:10106800591F08955F93DDDE703821F411200AF4CA
:101078009FCFA4CF903809F496CF01240894970BFA
:101088001BF4D4F30020F3CF792F1F932F933F93B2
:101098004F931124112722273327A90190E2AE1775
:1010A800BF078607410730F0AE1BBF0B860B410B0D
:1010B800089401C08894551F221F331F111CAA1FB2
:1010C800BB1F881F441F9A9551F7F901612D4F9155
:1010D8003F912F911F91662332F0550FEE1FFF1F8E
:1010E800661F7A954BF281DE5F91089599239AF0F5
:1010F800772342F0971748F029F4AE17BF07860701
:1011080020F031F09894889408959894089408955C
:101118001894889408957723C2F7971798F3A9F736
:10112800EA17FB07680788F399F3ECCF109639F0B4
:10113800A89580ED97E00197F1F71197C9F7089501
:00000001FF
