:100000000C94A7000C94C4000C94C4000C94C4007D
:100010000C94C4000C94C4000C94C4000C94C40050
:100020000C94C4000C94C4000C94C4000C94C40040
:100030000C94C4000C94C4000C94C4000C94C40030
:100040000C94F4080C94C4000C94C4000C94C400E8
:100050000C94C40000407A10F35A00A0724E1809A4
:100060000010A5D4E80000E87648170000E40B541F
:10007000020000CA9A3B000000E1F50500008096EE
:100080009800000040420F000000A0860100000020
:10009000102700000000E8030000000064000000DA
:1000A00000000A00000000000100000000002C76A3
:1000B000D888DC674F0823DFC1DFAE59E1B1B796BE
:1000C000E5E3E453C63AE651997696E8E6C284261B
:1000D000EB898C9B62ED407C6FFCEFBC9C9F40F2F7
:1000E000BAA56FA5F490055A2AF75C936B6CF96773
:1000F0006DC11BFCE0E40D47FEF520E6B500D0ED38
:10010000902E0300943577050080841E080000209F
:100110004E0A000000C80C333333330F986E12833D
:100120001141EF8D2114893BE65516CFFEE6DB1811
:10013000D1844B381BF77C1D901DA4BBE4242032D6
:1001400084725E228100C9F124ECA1E53D271124CF
:100150001FBECFE5D8E0DEBFCDBF12E0A0E6B0E025
:10016000E0EBFFE202C005900D92AC30B107D9F789
:1001700012E0ACE0B2E001C01D92AF30B107E1F790
:100180000E9443140C94D6170C940000EF92FF9237
:100190000F931F937B018C0120E030E040E05FE48F
:1001A0000E94720488238CF0C801B70120E030E07F
:1001B00040E05FE40E943E020E9430059B01AC01DA
:1001C000205030404040504806C0C801B7010E944E
:1001D00030059B01AC01B901CA011F910F91FF903D
:1001E000EF900895A0E0B0E0E8EFF0E00C943B154C
:1001F000DC012B01FA019C91923008F439C1EB012A
:100200008881823008F433C1943069F4843009F075
:100210002FC111969C9111978981981709F428C1D3
:10022000AFEFB0E025C1843009F421C18230A9F4D8
:10023000923009F01DC19A01AD0188E0EA010990F0
:10024000AE01E90109929E018150C1F7E201898165
:1002500011969C918923818308C1923009F407C1CA
:1002600012962D903C901397EB018A819B811496F6
:10027000AD90BD90CD90DC901797EC80FD800E8105
:100280001F819101281B390BB90137FF04C0662774
:100290007727621B730B603271050CF061C0121678
:1002A00013066CF537014801062E04C09694879416
:1002B000779467940A94D2F721E030E040E050E070
:1002C00004C0220F331F441F551F6A95D2F72150D7
:1002D0003040404050402E213F21402351232115E2
:1002E00031054105510521F021E030E040E050E0CA
:1002F00079018A01E628F728082919293CC0232B0F
:10030000D1F1260E371E35014601062E04C0969403
:100310008794779467940A94D2F721E030E040E024
:1003200050E004C0220F331F441F551F6A95D2F7B7
:1003300021503040404050402A213B214C215D213A
:10034000211531054105510521F021E030E040E063
:1003500050E059016A01A628B728C828D9280BC03F
:10036000821593052CF01C01AA24BB24650103C04F
:10037000EE24FF24870111969C91D20111968C9155
:10038000981709F445C0992339F0A80197012A1953
:100390003B094C095D0906C0A60195012E193F09CC
:1003A000400B510B57FD08C01182338222822483F7
:1003B0003583468357831DC081E081833382228247
:1003C00088279927DC01821B930BA40BB50B848330
:1003D0009583A683B7830DC0220F331F441F551F7B
:1003E0002483358346835783828193810197938346
:1003F00082832481358146815781DA01C9010197C1
:10040000A109B1098F5F9F4FAF4FBF4328F30BC0C6
:10041000918333822282EA0CFB1C0C1D1D1DE48299
:10042000F5820683178383E08083248135814681AA
:10043000578157FF1AC0C901AA2797FDA095BA2F67
:1004400081709070A070B07056954795379527953C
:10045000822B932BA42BB52B84839583A683B78300
:1004600082819381019693838283DF0101C0D2014F
:10047000CD01CDB7DEB7E2E10C945715A0E2B0E0B4
:10048000E4E4F2E00C94471569837A838B839C83C0
:100490002D833E834F835887E9E0EE2EF12CEC0E3E
:1004A000FD1ECE010196B7010E9421078E010F5E4D
:1004B0001F4FCE010596B8010E9421078A8991E05D
:1004C00089278A8BC701B801AE01475E5F4F0E9442
:1004D000F2000E944C06A096E6E00C946315A0E2A0
:1004E000B0E0E5E7F2E00C94471569837A838B83EB
:1004F0009C832D833E834F835887F9E0EF2EF12CA8
:10050000EC0EFD1ECE010196B7010E9421078E015F
:100510000F5E1F4FCE010596B8010E942107C7014B
:10052000B801AE01475E5F4F0E94F2000E944C0688
:10053000A096E6E00C946315A0E2B0E0E2EAF2E0F7
:100540000C943B1569837A838B839C832D833E8334
:100550004F835887CE010196BE01675F7F4F0E948F
:100560002107CE010596BE016F5E7F4F0E942107D5
:100570009985923088F089898230C8F0943019F4D6
:10058000823051F404C0843029F4923081F48FEF2A
:1005900090E0C6C0923049F420E09A858A89981389
:1005A00021E02A87CE010996BBC0823049F420E0C1
:1005B0009A858A89981321E02A8BCE014196B0C092
:1005C0002D843E844F8458886D887E888F88988CCF
:1005D000EE24FF248701AA24BB24650140E050E0FB
:1005E00060E070E0E0E0F0E0C10181709070892B84
:1005F000E9F0E60CF71C081D191D9A01AB012A0D44
:100600003B1D4C1D5D1D80E090E0A0E0B0E0E614D5
:10061000F7040805190520F481E090E0A0E0B0E0BF
:10062000BA01A901480F591F6A1F7B1FAA0CBB1CE6
:10063000CC1CDD1C97FE08C081E090E0A0E0B0E09B
:10064000A82AB92ACA2ADB2A3196E032F10549F0F4
:10065000660C771C881C991C5694479437942794F1
:10066000C3CFFA85EA892B893C898B859C85280F25
:10067000391F2E5F3F4F17C0CA0181709070892BC0
:1006800061F016950795F794E79480E090E0A0E07C
:10069000B0E8E82AF92A0A2B1B2B7695679557951F
:1006A00047952F5F3F4F77FDE7CF0CC0440F551F95
:1006B000661F771F17FD4160EE0CFF1C001F111F06
:1006C00021503040403090E0590790E0690790E4B5
:1006D000790760F32B8F3C8FDB01CA018F77907015
:1006E000A070B07080349105A105B10561F447FD9B
:1006F0000AC0E114F1040105110529F0405C5F4FC7
:100700006F4F7F4F40781A8EFE1711F081E08A8F6D
:100710004D8F5E8F6F8F78A383E0898FCE014996CE
:100720000E944C06A096E2E10C945715A8E1B0E0B7
:10073000ECE9F3E00C94431569837A838B839C8303
:100740002D833E834F835887B9E0EB2EF12CEC0EBE
:10075000FD1ECE010196B7010E9421078E010F5E9A
:100760001F4FCE010596B8010E942107298522302E
:1007700008F47EC03989323010F4B8017CC08A8513
:100780009A8989278A87243011F0223031F423177F
:1007900009F06EC06FEF70E06EC0343039F41D8622
:1007A0001E861F86188A1C861B8604C0323021F4E0
:1007B00084E08987B7015FC02B853C858B899C8944
:1007C000281B390B3C872B87ED84FE840F85188905
:1007D000AD88BE88CF88D88CEA14FB040C051D05B3
:1007E00040F4EE0CFF1C001F111F215030403C87CD
:1007F0002B8720E030E040E050E080E090E0A0E097
:10080000B0E460E070E0EA14FB040C051D0540F064
:10081000282B392B4A2B5B2BEA18FB080C091D09E6
:10082000B695A79597958795EE0CFF1C001F111F95
:100830006F5F7F4F6F31710531F7DA01C9018F7733
:100840009070A070B07080349105A105B10561F47D
:1008500027FD0AC0E114F1040105110529F0205C0F
:100860003F4F4F4F5F4F20782D873E874F87588BE4
:10087000BE01675F7F4FCB010E944C066896EAE09D
:100880000C945F15A8E1B0E0E8E4F4E00C9447159F
:1008900069837A838B839C832D833E834F83588720
:1008A00089E0E82EF12CEC0EFD1ECE010196B70179
:1008B0000E9421078E010F5E1F4FCE010596B801E1
:1008C0000E9421078985823040F08989823028F092
:1008D000C701B8010E94990701C08FEF6896E6E052
:1008E0000C946315A8E1B0E0E8E7F4E00C94471538
:1008F00069837A838B839C832D833E834F835887C0
:1009000089E0E82EF12CEC0EFD1ECE010196B70118
:100910000E9421078E010F5E1F4FCE010596B80180
:100920000E9421078985823040F08989823028F031
:10093000C701B8010E94990701C08FEF6896E6E0F1
:100940000C946315A8E1B0E0E8EAF4E00C944715D4
:1009500069837A838B839C832D833E834F8358875F
:1009600089E0E82EF12CEC0EFD1ECE010196B701B8
:100970000E9421078E010F5E1F4FCE010596B80120
:100980000E9421078985823040F08989823028F0D1
:10099000C701B8010E94990701C081E06896E6E0AE
:1009A0000C946315A8E0B0E0E8EDF4E00C94441575
:1009B0009B01AC0183E08983DA01C9018827B7FD77
:1009C00083959927AA27BB27B82E21153105410504
:1009D000510519F482E089833AC08823A9F02030B8
:1009E00080E0380780E0480780E8580729F460E095
:1009F00070E080E09FEC30C0EE24FF248701E21A13
:100A0000F30A040B150B02C079018A018EE1C82E8E
:100A1000D12CDC82CB82ED82FE820F831887C80145
:100A2000B7010E94FD0501971816190684F4082ED7
:100A300004C0EE0CFF1C001F111F0A94D2F7ED82B8
:100A4000FE820F831887C81AD90ADC82CB82BA8249
:100A5000CE0101960E944C062896E9E00C946015A0
:100A6000ACE0B0E0E6E3F5E00C944B1569837A83E3
:100A70008B839C83CE010196BE016B5F7F4F0E94EA
:100A800021078D81823061F1823050F1843021F470
:100A90008E81882351F12EC02F81388537FD20C0EB
:100AA0006E812F3131051CF06623F9F023C08EE1F1
:100AB00090E0821B930B29853A854B855C8504C0A9
:100AC00056954795379527958A95D2F76623B1F0C5
:100AD00050954095309521953F4F4F4F5F4F0EC039
:100AE00020E030E040E050E009C02FEF3FEF4FEF53
:100AF0005FE704C020E030E040E050E8B901CA01FF
:100B00002C96E2E00C946715A8E0B0E0EAE8F5E086
:100B10000C9443157B018C016115710581059105CC
:100B200019F482E0898360C083E089838EE1C82E56
:100B3000D12CDC82CB82ED82FE820F831887C80124
:100B4000B7010E94FD05FC013197F7FF3BC022274A
:100B500033272E1B3F0B57016801022E04C0D69489
:100B6000C794B794A7940A94D2F740E050E060E0AD
:100B700070E081E090E0A0E0B0E004C0880F991F31
:100B8000AA1FBB1F2A95D2F70197A109B1098E218F
:100B90009F21A023B1230097A105B10521F041E0D9
:100BA00050E060E070E04A295B296C297D294D8383
:100BB0005E836F8378878EE190E08E1B9F0B9C8312
:100BC0008B8312C0309781F00E2E04C0EE0CFF1CF8
:100BD000001F111F0A94D2F7ED82FE820F8318873F
:100BE000CE1ADF0ADC82CB821A82CE0101960E94E5
:100BF0004C062896EAE00C945F15EF92FF920F9353
:100C00001F937B018C0180E0E81680E0F80681E00C
:100C1000080780E0180788F48FEFE816F104010553
:100C2000110531F028F088E090E0A0E0B0E017C0B6
:100C300080E090E0A0E0B0E012C080E0E81680E044
:100C4000F80680E0080781E0180728F088E190E0C6
:100C5000A0E0B0E004C080E190E0A0E0B0E020E2DD
:100C600030E040E050E0281B390B4A0B5B0B04C01E
:100C700016950795F794E7948A95D2F7F701E95FFF
:100C8000FE4F8081281B310941095109C9011F917B
:100C90000F91FF90EF900895DF92EF92FF920F93E4
:100CA0001F93FC01E480F58006811781D18080814B
:100CB000823048F480E090E0A0E1B0E0E82AF92A30
:100CC0000A2B1B2BA5C0843009F49FC0823021F46D
:100CD000EE24FF24870105C0E114F104010511058C
:100CE00019F4E0E0F0E096C0628173819FEF623812
:100CF00079070CF05BC022E83FEF261B370B2A3147
:100D000031052CF020E030E040E050E02AC0B8018E
:100D1000A701022E04C076956795579547950A94CA
:100D2000D2F781E090E0A0E0B0E004C0880F991F06
:100D3000AA1FBB1F2A95D2F70197A109B1098E21DD
:100D40009F21A023B1230097A105B10521F081E0E7
:100D500090E0A0E0B0E09A01AB01282B392B4A2BA0
:100D60005B2BDA01C9018F779070A070B07080346E
:100D70009105A105B10539F427FF09C0205C3F4F5B
:100D80004F4F5F4F04C0215C3F4F4F4F5F4FE0E03C
:100D9000F0E02030A0E03A07A0E04A07A0E45A07BC
:100DA00010F0E1E0F0E079018A0127C060387105B8
:100DB00064F5FB01E158FF4FD801C7018F779070B0
:100DC000A070B07080349105A105B10539F4E7FE3B
:100DD0000DC080E490E0A0E0B0E004C08FE390E0BC
:100DE000A0E0B0E0E80EF91E0A1F1B1F17FF05C0A8
:100DF00016950795F794E794319687E01695079531
:100E0000F794E7948A95D1F705C0EE24FF24870173
:100E1000EFEFF0E06E2F679566276795902F9F772D
:100E2000D794DD24D7948E2F8695492F462B582FA3
:100E30005D29B701CA011F910F91FF90EF90DF90DC
:100E40000895FC01DB01408151812281622F6F777F
:100E500070E0221F2227221F9381892F880F822B67
:100E6000282F30E0991F9927991F11969C9311976D
:100E700021153105A9F5411551056105710511F4DB
:100E800082E037C082E89FEF13969C938E9312976F
:100E90009A01AB0167E0220F331F441F551F6A956B
:100EA000D1F783E08C930DC0220F331F441F551FD1
:100EB00012968D919C911397019713969C938E9304
:100EC0001297203080E0380780E0480780E4580718
:100ED00058F314962D933D934D935C931797089573
:100EE0002F3F310579F4411551056105710519F45C
:100EF00084E08C93089564FF03C081E08C9312C05A
:100F00001C9210C02F57304013963C932E9312978B
:100F100083E08C9387E0440F551F661F771F8A95E7
:100F2000D1F7706414964D935D936D937C931797EE
:100F300008951F93DC01FB019C91923008F447C097
:100F40008081823008F443C0943051F411961C9192
:100F5000843099F58181682F70E0611B71093FC071
:100F6000843021F0923031F48230B9F181818823CC
:100F700089F12DC011961C9111978230F1F0818179
:100F80001817D9F412962D913C9113978281938171
:100F90008217930794F028173907BCF014968D91A7
:100FA0009D910D90BC91A02D248135814681578162
:100FB000281739074A075B0718F4112341F00AC0C4
:100FC00082179307A407B50740F4112319F061E0D5
:100FD00070E005C06FEF7FEF02C060E070E0CB0112
:100FE0001F910895DF93CF93CDB7DEB7A7E2B0E0AE
:100FF000E7E2F0E080818F778C93A7E2B0E0E7E250
:10100000F0E0808180648C93A7E2B0E0E7E2F0E05A
:1010100080818F7D8C93A6E2B0E0E6E2F0E08081F3
:101020008F7D8C93A6E2B0E0E6E2F0E08081846000
:101030008C93A6E2B0E0E6E2F0E0808182608C93DF
:10104000A6E2B0E0E6E2F0E080818E7F8C93A6E23B
:10105000B0E0E6E2F0E0808180688C93CF91DF9190
:101060000895DF93CF93CDB7DEB728970FB6F894E6
:10107000DEBF0FBECDBF8E8378876F8381E08D8307
:1010800019821A821B821C828E81803208F05BC01A
:101090008F819885009709F456C0A7E2B0E0E7E297
:1010A000F0E08081807E8C93A7E2B0E0E7E2F0E0A0
:1010B00090818E81892B8C93A6E2B0E0E6E2F0E08D
:1010C000808180648C930BC089819A81AB81BC81C3
:1010D0000196A11DB11D89839A83AB83BC8389814D
:1010E0009A81AB81BC81803422E492072FE0A20771
:1010F00020E0B20758F4E6E2F0E0808182958F703C
:10110000882F90E0817090700097F1F2E6E2F0E0B5
:10111000808182958F70882F90E0817090708823F5
:1011200081F0A6E2B0E0E6E2F0E0808180618C939D
:10113000E4E2F0E080819181EF81F8859183808302
:1011400003C01D8201C01D828D8128960FB6F894C0
:10115000DEBF0FBECDBFCF91DF910895DF93CF9358
:1011600000D000D0CDB7DEB78A837C836B8381E06B
:10117000898380910E02882371F58A81803258F527
:101180008B819C81009739F181E080930E028B81E5
:101190009C8190930D0280930C02A7E2B0E0E7E2FD
:1011A000F0E08081807E8C93A7E2B0E0E7E2F0E09F
:1011B00090818A81892B8C93A6E2B0E0E6E2F0E090
:1011C000808188608C93A6E2B0E0E6E2F0E0808166
:1011D00080648C9301C0198289810F900F900F90C9
:1011E0000F90CF91DF9108951F920F920FB60F923B
:1011F00011242F933F934F935F936F937F938F931C
:101200009F93AF93BF93EF93FF93DF93CF93CDB7AC
:10121000DEB780910C0290910D02009799F0209119
:101220000C0230910D02E4E2F0E080819181F9013D
:101230000995A6E2B0E0E6E2F0E08081877F8C933A
:1012400010920E02CF91DF91FF91EF91BF91AF917C
:101250009F918F917F916F915F914F913F912F91CE
:101260000F900FBE0F901F901895DF93CF93CDB7BF
:10127000DEB7EAE3F0E081E08083E7E3F0E01082AC
:10128000E4E3F0E084E08083E1E3F0E082E0808367
:10129000EBE3F0E01082E8E3F0E01082E5E3F0E059
:1012A00084E08083E2E3F0E01082CF91DF91089543
:1012B000DF93CF93CDB7DEB72E970FB6F894DEBF8E
:1012C0000FBECDBF8A836B834C8381E089838B8182
:1012D000883008F0BCC18A81282F30E03E872D87F6
:1012E0008D859E858130910509F47DC02D853E85D3
:1012F000223031052CF48D859E85009771F0A5C1B3
:101300002D853E852230310509F4D3C08D859E851B
:101310008330910509F433C198C18C81282F30E0C6
:101320003C872B878B859C858130910551F02B85DF
:101330003C852230310571F18B859C850097A9F0A1
:1013400050C0AAE3B0E0EAE3F0E08081482F8B814F
:10135000282F30E081E090E0022E02C0880F991F14
:101360000A94E2F7842B8C9373C1AAE3B0E0EAE31A
:10137000F0E08081482F8B81282F30E081E090E0E1
:10138000022E02C0880F991F0A94E2F780958423E9
:101390008C935EC1AAE3B0E0EAE3F0E08081482FDD
:1013A0008B81282F30E081E090E002C0880F991FE8
:1013B0002A95E2F7809584238C93ABE3B0E0EBE3CE
:1013C000F0E08081482F8B81282F30E081E090E091
:1013D000022E02C0880F991F0A94E2F7842B8C9387
:1013E00037C1198235C18C81282F30E03A8729878F
:1013F00089859A858130910551F029853A85223079
:10140000310571F189859A850097A9F050C0A7E34D
:10141000B0E0E7E3F0E08081482F8B81282F30E0B7
:1014200081E090E0022E02C0880F991F0A94E2F733
:10143000842B8C930DC1A7E3B0E0E7E3F0E080815B
:10144000482F8B81282F30E081E090E0022E02C0EF
:10145000880F991F0A94E2F7809584238C93F8C033
:10146000A7E3B0E0E7E3F0E08081482F8B81282FED
:1014700030E081E090E002C0880F991F2A95E2F7E2
:10148000809584238C93A8E3B0E0E8E3F0E08081CA
:10149000482F8B81282F30E081E090E0022E02C09F
:1014A000880F991F0A94E2F7842B8C93D1C019827C
:1014B000CFC08C81282F30E038872F838F8198858B
:1014C0008130910551F02F8138852230310571F13D
:1014D0008F8198850097A9F050C0A4E3B0E0E4E3C1
:1014E000F0E08081482F8B81282F30E081E090E070
:1014F000022E02C0880F991F0A94E2F7842B8C9366
:10150000A7C0A4E3B0E0E4E3F0E08081482F8B8142
:10151000282F30E081E090E0022E02C0880F991F52
:101520000A94E2F7809584238C9392C0A4E3B0E000
:10153000E4E3F0E08081482F8B81282F30E081E0C8
:1015400090E002C0880F991F2A95E2F780958423C6
:101550008C93A5E3B0E0E5E3F0E08081482F8B8138
:10156000282F30E081E090E0022E02C0880F991F02
:101570000A94E2F7842B8C936BC0198269C08C812A
:10158000282F30E03E832D838D819E81813091050F
:1015900051F02D813E812230310571F18D819E8186
:1015A0000097A9F050C0A1E3B0E0E1E3F0E0808152
:1015B000482F8B81282F30E081E090E0022E02C07E
:1015C000880F991F0A94E2F7842B8C9341C0A1E302
:1015D000B0E0E1E3F0E08081482F8B81282F30E0FC
:1015E00081E090E0022E02C0880F991F0A94E2F772
:1015F000809584238C932CC0A1E3B0E0E1E3F0E07C
:101600008081482F8B81282F30E081E090E002C05C
:10161000880F991F2A95E2F7809584238C93A2E383
:10162000B0E0E2E3F0E08081482F8B81282F30E0AA
:1016300081E090E0022E02C0880F991F0A94E2F721
:10164000842B8C9305C0198203C0198201C01982B2
:1016500089812E960FB6F894DEBF0FBECDBFCF9115
:10166000DF910895DF93CF93CDB7DEB72E970FB6F6
:10167000F894DEBF0FBECDBF8A836B834C8381E0BD
:1016800089838B81883008F00CC18A81282F30E053
:101690003E872D878D859E858130910509F451C047
:1016A0002D853E85223031052CF48D859E85009751
:1016B00071F0F5C02D853E852230310509F47BC0DF
:1016C0008D859E858330910509F4AFC0E8C08C817B
:1016D000282F30E03C872B878B859C85009731F045
:1016E0002B853C8521303105B1F029C0ABE3B0E05A
:1016F000EBE3F0E08081482F8B81282F30E081E000
:1017000090E0022E02C0880F991F0A94E2F780959C
:1017100084238C93C7C0ABE3B0E0EBE3F0E08081BF
:10172000482F8B81282F30E081E090E0022E02C00C
:10173000880F991F0A94E2F7842B8C93B3C0198207
:10174000B1C08C81282F30E03A87298789859A8516
:10175000009731F029853A8521303105B1F029C053
:10176000A8E3B0E0E8E3F0E08081482F8B81282FE8
:1017700030E081E090E0022E02C0880F991F0A94A9
:10178000E2F7809584238C938DC0A8E3B0E0E8E372
:10179000F0E08081482F8B81282F30E081E090E0BD
:1017A000022E02C0880F991F0A94E2F7842B8C93B3
:1017B00079C0198277C08C81282F30E038872F8339
:1017C0008F819885009731F02F8138852130310540
:1017D000B1F029C0A5E3B0E0E5E3F0E08081482F57
:1017E0008B81282F30E081E090E0022E02C0880F2C
:1017F000991F0A94E2F7809584238C9353C0A5E344
:10180000B0E0E5E3F0E08081482F8B81282F30E0C5
:1018100081E090E0022E02C0880F991F0A94E2F73F
:10182000842B8C933FC019823DC08C81282F30E0DF
:101830003E832D838D819E81009731F02D813E81E5
:1018400021303105B1F029C0A2E3B0E0E2E3F0E0DD
:101850008081482F8B81282F30E081E090E0022E9C
:1018600002C0880F991F0A94E2F7809584238C9315
:1018700019C0A2E3B0E0E2E3F0E08081482F8B8161
:10188000282F30E081E090E0022E02C0880F991FDF
:101890000A94E2F7842B8C9305C0198203C0198245
:1018A00001C0198289812E960FB6F894DEBF0FBE53
:1018B000CDBFCF91DF910895DF93CF93CDB7DEB742
:1018C00027970FB6F894DEBF0FBECDBF8A836B8318
:1018D0005D834C8381E089838B81883008F078C0F8
:1018E0008C819D81009709F473C08A81282F30E094
:1018F0003F832E834E815F814130510559F18E81A6
:101900009F818230910534F42E813F81211531056C
:1019100069F05CC04E815F814230510579F18E8162
:101920009F818330910509F43DC050C0E9E3F0E0A8
:101930008081282F30E08B81882F90E0A90102C0A0
:10194000559547958A95E2F7CA018170EC81FD8132
:1019500080833FC0E6E3F0E08081282F30E08B8178
:10196000882F90E0A90102C0559547958A95E2F726
:10197000CA018170EC81FD8180832BC0E3E3F0E03C
:101980008081282F30E08B81882F90E0A90102C050
:10199000559547958A95E2F7CA018170EC81FD81E2
:1019A000808317C0E0E3F0E08081282F30E08B8156
:1019B000882F90E0A90102C0559547958A95E2F7D6
:1019C000CA018170EC81FD81808303C0198201C04E
:1019D0001982898127960FB6F894DEBF0FBECDBF5E
:1019E000CF91DF910895DF93CF93CDB7DEB72D97D9
:1019F0000FB6F894DEBF0FBECDBF8A836B8381E044
:101A000089838A81282F30E03D872C878C859D85AE
:101A10008130910509F43EC02C853D852230310589
:101A20002CF48C859D85009771F0A9C02C853D858F
:101A30002230310509F455C08C859D858330910590
:101A400009F476C09CC08B81282F30E03B872A8721
:101A50008A859B858130910551F02A853B8522300E
:101A6000310571F08A859B85009731F011C0EAE35A
:101A7000F0E08FEF808384C0EAE3F0E0108280C062
:101A8000EAE3F0E01082EBE3F0E08FEF808378C0D0
:101A9000198276C08B81282F30E039872887888586
:101AA00099858130910551F028853985223031059D
:101AB00071F088859985009731F011C0E7E3F0E077
:101AC0008FEF80835DC0E7E3F0E0108259C0E7E369
:101AD000F0E01082E8E3F0E08FEF808351C01982DC
:101AE0004FC08B81282F30E03F832E838E819F81D2
:101AF0008130910551F02E813F812230310571F006
:101B00008E819F81009731F011C0E4E3F0E08FEF08
:101B1000808336C0E4E3F0E0108232C0E4E3F0E01A
:101B20001082E5E3F0E08FEF80832AC0198228C09D
:101B30008B81282F30E03D832C838C819D818130E7
:101B4000910551F02C813D812230310571F08C815D
:101B50009D81009731F011C0E1E3F0E08FEF8083C9
:101B60000FC0E1E3F0E010820BC0E1E3F0E010828F
:101B7000E2E3F0E08FEF808303C0198201C0198295
:101B800089812D960FB6F894DEBF0FBECDBFCF91E1
:101B9000DF910895DF93CF9300D000D00F92CDB79F
:101BA000DEB78A836B8381E089838A81282F30E0C6
:101BB0003D832C838C819D8181309105D1F02C81D6
:101BC0003D81223031052CF48C819D81009761F09C
:101BD0001FC02C813D812230310581F08C819D8197
:101BE0008330910581F014C0EBE3F0E08B818083BA
:101BF00010C0E8E3F0E08B8180830BC0E5E3F0E008
:101C00008B81808306C0E2E3F0E08B81808301C09A
:101C1000198289810F900F900F900F900F90CF91A4
:101C2000DF910895DF93CF9300D000D000D0CDB7DF
:101C3000DEB78A837C836B8381E089838B819C817F
:101C40000097E9F18A81282F30E03E832D838D8132
:101C50009E8181309105E1F02D813E812230310558
:101C60002CF48D819E81009761F027C02D813E81EB
:101C700022303105A1F08D819E8183309105B1F034
:101C80001CC0E9E3F0E08081EB81FC81808318C017
:101C9000E6E3F0E08081EB81FC81808311C0E3E327
:101CA000F0E08081EB81FC8180830AC0E0E3F0E01A
:101CB0008081EB81FC81808303C0198201C019827D
:101CC000898126960FB6F894DEBF0FBECDBFCF91A7
:101CD000DF910895DF93CF9300D000D00F92CDB75E
:101CE000DEB78A836B8319828B81883008F072C0DB
:101CF00081E089838A81282F30E03D832C838C8189
:101D00009D818130910549F12C813D812230310541
:101D10002CF48C819D81009761F05BC02C813D810A
:101D20002230310571F18C819D8183309105E9F17B
:101D300050C0ABE3B0E0EBE3F0E08081482F8B8153
:101D4000282F30E081E090E0022E02C0880F991F1A
:101D50000A94E2F784278C933DC0A8E3B0E0E8E35F
:101D6000F0E08081482F8B81282F30E081E090E0E7
:101D7000022E02C0880F991F0A94E2F784278C93E1
:101D800029C0A5E3B0E0E5E3F0E08081482F8B8136
:101D9000282F30E081E090E0022E02C0880F991FCA
:101DA0000A94E2F784278C9315C0A2E3B0E0E2E343
:101DB000F0E08081482F8B81282F30E081E090E097
:101DC000022E02C0880F991F0A94E2F784278C9391
:101DD00001C0198289810F900F900F900F900F9082
:101DE000CF91DF910895DF93CF930F92CDB7DEB7F8
:101DF0008983A6E5B0E0E6E5F0E0808184608C931D
:101E0000A6E5B0E0E6E5F0E0808180648C93A1E295
:101E1000B0E0E1E2F0E080818D7F8C93A1E2B0E060
:101E2000E1E2F0E080818E7F8C93E0E2F0E080E2FE
:101E30008083E2E2F0E08981880F80830F90CF9168
:101E4000DF910895DF93CF930F92CDB7DEB719825C
:101E5000A6E5B0E0E6E5F0E0808180628C93A6E53F
:101E6000B0E0E6E5F0E0808180688C93E6E5F0E0A4
:101E700080818823DCF7E1E2F0E08081882F90E028
:101E8000887F90708830910531F080E690E00E9464
:101E9000E41381E0898389810F90CF91DF910895C8
:101EA000DF93CF930F92CDB7DEB71982A6E5B0E0EE
:101EB000E6E5F0E0808180628C93A6E5B0E0E6E59F
:101EC000F0E0808180688C93E6E5F0E080818823F3
:101ED000DCF7E1E2F0E08081882F90E0887F90706D
:101EE0008031910531F08EE690E00E94E41382E0AB
:101EF000898389810F90CF91DF910895DF93CF93EC
:101F000000D0CDB7DEB78A831982E3E2F0E08A81A0
:101F1000880F8083A3E2B0E0E3E2F0E080818E7F6F
:101F20008C93A6E5B0E0E6E5F0E080818F7D8C93B0
:101F3000A6E5B0E0E6E5F0E0808180688C93E6E518
:101F4000F0E080818823DCF7E1E2F0E08081882FF7
:101F500090E0887F90708831910531F08FE790E0B4
:101F60000E94E41383E0898389810F900F90CF91C1
:101F7000DF910895DF93CF9300D0CDB7DEB78A838A
:101F80001982E3E2F0E08A818083A6E5B0E0E6E52D
:101F9000F0E0808180688C93E6E5F0E08081882322
:101FA000DCF7E1E2F0E08081882F90E0887F90709C
:101FB0008832910531F085E990E00E94E41385E0D4
:101FC000898389810F900F90CF91DF910895DF93DE
:101FD000CF9300D0CDB7DEB78A831982E3E2F0E079
:101FE0008A81880F8083A3E2B0E0E3E2F0E08081A1
:101FF00081608C93A6E5B0E0E6E5F0E080818F7D1E
:102000008C93A6E5B0E0E6E5F0E0808180688C93F3
:10201000E6E5F0E080818823DCF7E1E2F0E0808112
:10202000882F90E0887F90708034910531F087EAA6
:1020300090E00E94E41384E0898389810F900F90DF
:10204000CF91DF910895DF93CF9300D00F92CDB75A
:10205000DEB79B838A8319828A819B81009721F155
:10206000A6E5B0E0E6E5F0E0808180688C93E6E5E7
:10207000F0E080818823DCF7E1E2F0E08081882FC6
:1020800090E0887F90708035910539F08CEB90E07E
:102090000E94E41387E0898309C0E3E2F0E08081D5
:1020A000EA81FB81808302C086E0898389810F9069
:1020B0000F900F90CF91DF910895DF93CF930F9200
:1020C000CDB7DEB71982A6E5B0E0E6E5F0E08081A5
:1020D00080618C93A6E5B0E0E6E5F0E08081806861
:1020E0008C9389810F90CF91DF910895DF93CF93E7
:1020F000CDB7DEB780E50E94F30ECF91DF91089552
:10210000DF93CF9300D000D000D0CDB7DEB79C8353
:102110008B836D8381E08A8319820E94220F8983D9
:102120008981882321F01A828A818E833BC080E4D2
:102130000E947E0F89838981882321F01A828A81F7
:102140008E8330C08D810E94BA0F89838981882354
:1021500021F01A828A818E8325C08B819C81892FF0
:1021600099270E94BA0F89838981882321F01A82D6
:102170008A818E8317C08B810E94BA0F89838981DF
:10218000882321F01A828A818E830CC00E945D1000
:1021900089838981882321F01A828A818E8302C0F3
:1021A0008A818E838E8126960FB6F894DEBF0FBE8D
:1021B000CDBFCF91DF910895DF93CF93CDB7DEB739
:1021C00029970FB6F894DEBF0FBECDBF9F838E83D5
:1021D000688781E08A8319821C821B821D828E811E
:1021E0009F81009709F464C00E94220F898389812E
:1021F000882321F01A828A8189875DC080E40E9449
:102200007E0F89838981882321F01A828A818987B8
:1022100052C088850E94BA0F89838981882321F062
:102220001A828A81898747C00E94500F89838981D9
:10223000882321F01A828A8189873DC080E40E9428
:10224000E70F89838981882321F01A828A8189870F
:1022500032C0CE0103960E9423108983898188238E
:1022600021F01A828A81898726C0CE0105960E94B4
:10227000231089838B819C81382F22278D81882F81
:1022800090E0822B932BEE81FF8191838083898163
:10229000882321F01A828A8189870DC00E945D10EF
:1022A00089838981882329F01A828A81898703C0DA
:1022B0001A828A818987898529960FB6F894DEBFAC
:1022C0000FBECDBFCF91DF910895DF93CF9300D0A4
:1022D0000F92CDB7DEB781E08B838091070290919A
:1022E000080265E00E9480108FE991E09A8389835B
:1022F00089819A8160E00E9480108B810F900F90FD
:102300000F90CF91DF910895DF93CF9300D000D04D
:1023100000D0CDB7DEB71E821D82CE01059662E0E9
:102320000E94DC108D819E81969587959695879564
:1023300096958795880F991F880F991FCC01A0E06B
:10234000B0E0BC01CD010E948405DC01CB01BC01E1
:10235000CD012FE632E143E85AE30E949C02DC0102
:10236000CB0189839A83AB83BC8389819A81AB81BA
:10237000BC81BC01CD0126960FB6F894DEBF0FBE1E
:10238000CDBFCF91DF910895DF93CF9300D000D0E0
:1023900000D0CDB7DEB71E821D82CE01059661E06A
:1023A0000E94DC108D819E81CC01A0E0B0E0BC01D8
:1023B000CD010E948405DC01CB01BC01CD012AE0E6
:1023C00037ED43E25CE30E949C02DC01CB01898390
:1023D0009A83AB83BC8389819A81AB81BC81BC0128
:1023E000CD0126960FB6F894DEBF0FBECDBFCF91BC
:1023F000DF910895EF92FF920F931F93DF93CF9396
:10240000CDB7DEB728970FB6F894DEBF0FBECDBFAD
:102410001E821D8218861F82CE01059662E00E94F0
:10242000DC10CE01079661E00E94DC108D819E8158
:10243000969587959695879596958795880F991F78
:10244000880F991FCC01A0E0B0E0BC01CD010E9433
:1024500084057B018C018F819885CC01A0E0B0E0E0
:10246000BC01CD010E948405DC01CB01BC01CD0182
:102470002AE037ED43E25CE30E949C02DC01CB01E1
:102480009C01AD01C801B7010E946F02DC01CB01C4
:1024900089839A83AB83BC8389819A81AB81BC8118
:1024A000BC01CD0128960FB6F894DEBF0FBECDBF9C
:1024B000CF91DF911F910F91FF90EF900895EF92D0
:1024C000FF920F931F93DF93CF93CDB7DEB728977B
:1024D0000FB6F894DEBF0FBECDBF1E821D821886D8
:1024E0001F82CE01059662E00E94DC10CE010796A5
:1024F00061E00E94DC108D819E819695879596956E
:10250000879596958795880F991F880F991FCC01FD
:10251000A0E0B0E0BC01CD010E9484057B018C01EC
:102520008F819885CC01A0E0B0E0BC01CD010E9474
:102530008405DC01CB01BC01CD012AE037ED43E28B
:102540005CE30E949C02DC01CB019C01AD01C8014F
:10255000B7010E946F02DC01CB01BC01CD0120E07C
:1025600030E04AE754E40E949603DC01CB01898302
:102570009A83AB83BC8389819A81AB81BC81BC0186
:10258000CD0128960FB6F894DEBF0FBECDBFCF9118
:10259000DF911F910F91FF90EF900895EF92FF92BE
:1025A0000F931F93DF93CF9300D000D000D0CDB70F
:1025B000DEB71E821D82809107029091080265E0BD
:1025C0000E948010CE01059664E00E94DC108D818F
:1025D0009E81CC01A0E0B0E0BC01CD010E94840549
:1025E0007B018C0180910902882F90E0AA2797FD3A
:1025F000A095BA2FBC01CD010E94D2049B01AC0171
:10260000C801B7010E949603DC01CB0189839A833C
:10261000AB83BC8389819A81AB81BC81BC01CD0134
:1026200026960FB6F894DEBF0FBECDBFCF91DF91D7
:102630001F910F91FF90EF900895EF92FF920F93EB
:102640001F93DF93CF9300D000D000D0CDB7DEB77B
:102650001E821D82809107029091080265E00E940F
:102660008010CE01059663E00E94DC108D819E8172
:10267000CC01A0E0B0E0BC01CD010E9484057B014B
:102680008C0180910A02882F90E0AA2797FDA095DF
:10269000BA2FBC01CD010E94D2049B01AC01C8013C
:1026A000B7010E949C02DC01CB0189839A83AB8332
:1026B000BC8389819A81AB81BC81BC01CD01269606
:1026C0000FB6F894DEBF0FBECDBFCF91DF911F9143
:1026D0000F91FF90EF900895DF93CF9300D00F926A
:1026E000CDB7DEB780E88B83ABE2B0E0EBE2F0E0A1
:1026F00080818D7F8C93AAE2B0E0EAE2F0E08081F5
:1027000080618C93AAE2B0E0EAE2F0E08081886028
:102710008C93AAE2B0E0EAE2F0E080818B7F8C93B8
:102720008B8184608B838B8182608B838B818F7B99
:102730008B838B818F7D8B838B818F7E8B838B8132
:1027400088608B83E0E4F0E08B81808383E390E01A
:102750009A838983E9E2F0E089818083E0E4F0E014
:1027600089819A81892F992780830F900F900F90EC
:10277000CF91DF910895DF93CF930F92CDB7DEB75E
:102780008983EBE2F0E08081829586958770882FBF
:1027900090E0817090700097A1F3ECE2F0E0898105
:1027A00080830F90CF91DF910895DF93CF93CDB7C2
:1027B000DEB7EBE2F0E080818823DCF7ECE2F0E0CA
:1027C0008081CF91DF910895DF93CF9300D0CDB773
:1027D000DEB79A8389830AC0E981FA8180810E94E9
:1027E000BB1389819A8101969A838983E981FA8151
:1027F0008081882389F70F900F90CF91DF91089502
:102800000F931F93DF93CF9300D00F92CDB7DEB716
:102810009B838A8319828981282F30E08A819B815A
:102820008C01020F131F0E94D513F80180830FC083
:1028300089818F5F89838981282F30E08A819B81FC
:102840008C01020F131F0E94D513F8018083898128
:10285000282F30E08A819B81FC01E20FF31F8081E9
:102860008E3231F78981282F30E08A819B81FC01EB
:10287000E20FF31F10820F900F900F90CF91DF9116
:102880001F910F9108950F931F93DF93CF93CDB7AF
:10289000DEB7C755D0400FB6F894DEBF0FBECDBF30
:1028A0000E9435090E946C130E94761080E090E02F
:1028B000A0E0B0E08F87988BA98BBA8BCE014396AE
:1028C00065969FAF8EAF6597AFEDB0E06796BFAFEF
:1028D000AEAF6797B1E16896BFAF68976796EEAD08
:1028E000FFAD6797008067968EAD9FAD67970196A5
:1028F00067969FAF8EAF67976596AEADBFAD659794
:102900000C926596EEADFFAD659731966596FFAF7B
:10291000EEAF65976896FFAD6897F1506896FFAF88
:10292000689768968FAD68978823C1F68FE0FE019F
:10293000B496DF01982F1D929A95E9F7CE01439640
:102940000E94E413CE0143962EEC30E0B90141E140
:1029500050E00E949315CE0143960E94E4130E941A
:10296000CE12DC01CB018F87988BA98BBA8B8F8518
:102970009889A989BA89FE01F396BC01CD014AEF75
:1029800026E08F010E947215CE01C3960E94E413C7
:1029900080E090E0AAEFB4E48B879C87AD87BE8788
:1029A0006B857C858D859E8520E030E04AEF54E480
:1029B0000E949C02DC01CB018F839887A987BA878C
:1029C0006F81788589859A8520E030E040E85FE373
:1029D0000E94A20488232CF481E090E09E838D83E2
:1029E0003FC06F81788589859A8520E03FEF4FE76A
:1029F00057E40E94420418164CF56B857C858D8542
:102A00009E8520E030E040E251E40E949C02DC011F
:102A1000CB01BC01CD010E94C600DC01CB019E832D
:102A20008D830FC088EC90E09C838B838B819C818D
:102A30000197F1F79C838B838D819E8101979E8303
:102A40008D838D819E81009769F77CCF6F8178851A
:102A500089859A850E94C600DC01CB019E838D8307
:102A60008D819E819A83898389819A810197F1F76B
:102A70009A83898367CF2F923F924F925F926F9292
:102A80007F928F929F92AF92BF92CF92DF92EF92FE
:102A9000FF920F931F93CF93DF93CDB7DEB7CA1B7F
:102AA000DB0B0FB6F894DEBF0FBECDBF09942A88AA
:102AB000398848885F846E847D848C849B84AA8452
:102AC000B984C884DF80EE80FD800C811B81AA81DF
:102AD000B981CE0FD11D0FB6F894DEBF0FBECDBFAA
:102AE000ED010895EF92FF920F931F93F22FF02EB6
:102AF00047FD02C0E4E001C0E4E1242F332727FDB5
:102B0000309537FF03C0309521953F4F4F2D512F02
:102B10000F2FEE2E0E949C158F2D912F1F910F913C
:102B2000FF90EF900895FB01DC0102C001900D922F
:102B300041505040D8F70895A9E0B0E0E2EAF5E14D
:102B40000C943F156A01122FA02EBE2C2BE32017E8
:102B500018F42CE3922E02C0902E9394AE014F5F96
:102B60005F4F27E0092D0E94FE16BC018981E82EE7
:102B7000FF24C70189709070019711F4ADE209C07C
:102B8000B1FE02C0ABE205C0B0FC02C0A0E001C0D3
:102B9000A0E2E3FE3BC0AA2311F423E001C024E03D
:102BA000211710F020E002C0121B212FEB2CB4FEE5
:102BB00002C0322F0AC0F601322F80E202C0819398
:102BC00031503323E1F7C20ED11CAA2319F0F601CC
:102BD000A1936F01F6013196E2FE05C09EE4D60195
:102BE0009C9381E404C09EE6D6019C9381E61196F5
:102BF0008C9391833296DF01832F90E202C09D93E4
:102C000081508823E1F7E30FF11D40C0E2FE42C08E
:102C1000AA2311F423E001C024E0211710F020E0E2
:102C200002C0121B212FEB2CB4FE02C0922F0AC04F
:102C3000F601922F80E202C0819391509923E1F72F
:102C4000C20ED11CAA2319F0F601A1936F01F6015F
:102C50003196E2FE08C089E4D6018C938EE4119689
:102C60008C9386E407C089E6D6018C938EE6119694
:102C70008C9386E681833296DF01892F20E202C0A1
:102C80002D9381508823E1F7E90FF11D10822EEF7B
:102C90003FEFAFC0161617061CF041E050E003C02E
:102CA000AB014F5F5F4FAA2019F480E090E003C0B2
:102CB0008A2D90E0019620E030E0AA2311F021E077
:102CC00030E0240F351F280F391F812F90E028177F
:102CD000390714F020E002C0121B212F4B2D50E0C9
:102CE000CA0180719070B4FC0DC0B3FC0BC0F6013A
:102CF000322F40E202C0419331503323E1F7C20E3C
:102D0000D11C01C0322FAA2319F0F601A1936F0143
:102D1000892B11F0132F0AC0F601132F80E302C094
:102D2000819311501123E1F7C30ED11C092D060F19
:102D3000BA8090E1892E912C8E209F20E4FE04C061
:102D4000F1E3BF1609F40150101614F001E003C0BE
:102D5000093008F008E09B0177FF02C020E030E076
:102D6000CB010196821B930BFE013196E80FF91FF0
:102D70008EE2F82E3B01601A71088A2D90E04427FC
:102D80005527481B590B8FEF2F3F380719F4D601F1
:102D9000FD926D01621773072CF06216730614F42E
:102DA000808101C080E321503040319624173507DF
:102DB00024F0D6018D936D01E6CF2617370749F42D
:102DC000B5E3BB1528F0BB1621F48114910409F476
:102DD00081E3F6018193D601812F90E202C09C939A
:102DE000815011968823D9F7E10FF11D108220E060
:102DF00030E0C9012996EEE00C945B15283008F00C
:102E000027E03327DA01990F311D87FD9160009685
:102E10006105710539F432602E5F3D9330E32A95E8
:102E2000E1F708959F3F30F080387105610509F0A2
:102E30003C5F3C5F3D93913008F08068911DDF93CB
:102E4000CF931F930F93FF92EF92192F987F969530
:102E5000E92F96959695E90FFF27E255FF4F9927A1
:102E60003327EE24FF24A701E70105900894079477
:102E700028F4360FE71EF81E491F511D660F771FF5
:102E8000881F991F0694A1F70590079428F4E70E70
:102E9000F81E491F561FC11D770F881F991F661FF7
:102EA0000694A1F70590079428F4F80E491F561FC1
:102EB000C71FD11D880F991F661F771F0694A1F7A2
:102EC0000590079420F4490F561FC71FD81F990F6C
:102ED000661F771F881F0694A9F7849110951770B5
:102EE00041F0D695C79557954795F794E7941A956D
:102EF000C1F7E4E5F0E0689415901591359165917E
:102F0000959105907FE27395E118F10A430B560BFA
:102F1000C90BD009C0F7E10CF11E431F561FC91F92
:102F2000D01D7EF4703311F48A95E6CFE8940150F9
:102F300030F0080F0AF40027021708F4202F239519
:102F4000022F7A3328F079E37D932A95E9F710C0B0
:102F50007D932A9589F606949795679537951795E9
:102F60001794E118F10A430B560BC90BD00998F0DE
:102F700023957E9173957A3308F070E37C93201348
:102F8000B8F77E9170617D9330F0839571E37D9306
:102F900070E32A95E1F71124EF90FF900F911F91B4
:102FA000CF91DF91992787FD90950895F894FFCFF1
:102FB00053746172742050726F626C656D0052457B
:102FC0005053746172742050726F626C656D00575B
:102FD0007269746520616464726573732050726FE6
:102FE000626C656D0073656E64206461746120506D
:102FF000726F626C656D0052656164204164647239
:103000006573732050726F626C656D005265616408
:1030100020446174612050726F626C656D000D43D5
:10302000757272656E7420286D4129203D2000491B
:103030004E413231392052656164696E67730D000B
:103040000000000000000000000000000000000080
:10305000000000000000000001020203030303045B
:103060000404040404040405050505050505050517
:1030700005050505050505060606060606060606F7
:1030800006060606060606060606060606060606E0
:1030900006060606060606070707070707070707C7
:1030A00007070707070707070707070707070707B0
:1030B00007070707070707070707070707070707A0
:1030C0000707070707070707070707070707070790
:1030D0000707070707070708080808080808080877
:1030E0000808080808080808080808080808080860
:1030F0000808080808080808080808080808080850
:10310000080808080808080808080808080808083F
:10311000080808080808080808080808080808082F
:10312000080808080808080808080808080808081F
:10313000080808080808080808080808080808080F
:1031400008080808080808080808080808080808FF
:0C3150000808080808080800100A02001F
:00000001FF
